:100000000C94F0000C9411010C9411010C9411014A
:100010000C9411010C9411010C9411010C94110118
:100020000C9411010C9411010C9411010C94110108
:100030000C9411010C9411010C9411010C941101F8
:100040000C9411010C9411010C9411010C941101E8
:100050000C9411010C9411010C9411010C941101D8
:100060000C9411010C9411010C9411010C941101C8
:100070000C9411010C9411010C9411010C941101B8
:100080000C9411010C9411010C9411010C941101A8
:100090000C9411010C9411010C9411010C94110198
:1000A0000C9411010C9411010C9411010C94110188
:1000B0000C9411010C9411010C9411010C94110178
:1000C0000C9411010C9411010C9411010C94110168
:1000D0000C9411010C9411010C9411010C94110158
:1000E0000C9411010C9411010C9411010C94110148
:1000F0000C9411010C9411010C9411010C94110138
:100100000C9411010C9411010C9411010C94110127
:100110000C9411010C9411010C9411010C94110117
:100120000C9411010C9411010C9411010C94110107
:100130000C9411010C9411010C9411010C941101F7
:100140000C9411010C9411010C9411010C941101E7
:100150000C9411010C9411010C9411010C941101D7
:100160000C9411010C9411010C9411010C941101C7
:100170000C9411010C9411010C9411010C941101B7
:100180000C9411010C9411010C9411010C941101A7
:100190000C9411010C9411010C9411010C94110197
:1001A0000C9411010C9411010C9411010C94110187
:1001B0000C9411010C9411010C9411010C94110177
:1001C0000C9411010C9411010C9432010C94FD015A
:1001D0000C9413010C9430010C9411020C94150131
:1001E00011241FBECFEFCDBFDFE3DEBF00E00CBFA9
:1001F00011E2A0E0B0E2E0E4F8E000E00BBF02C0F2
:1002000007900D92A031B107D9F721E2A0E1B1E248
:1002100001C01D92A237B207E1F70E94FD030C94C2
:100220001E040C94000080E00895AC01DC019C01E8
:10023000205F3F4F81E080930506ED91F0E0E050B4
:10024000F04E9081FD013197908380930606A217AE
:10025000B30789F760E182E70E94CE0180E008954C
:1002600080E0089581E00895282F80E046EA6150FB
:1002700008F40895E22FF92F9191892728E030E0C2
:1002800087FF08C0880F842721503109C9F72E2F16
:100290009F2FEDCF880FF8CF9C01FA01DB0150E0D2
:1002A00040E0421753071CF090E080E008958C91E5
:1002B00011969C91119760ED690F6A3078F4608314
:1002C00090ED980F9A30D0F48295807F9081892BA1
:1002D00080834F5F5F4F31961296E3CF6FEB690FCC
:1002E000663018F497539083EBCF6FE9690F66304F
:1002F00018F081E090E008959755F5CF9FEB980FA7
:10030000963040F48753990B64E0880F991F6A95E3
:10031000E1F7DCCF9FE9980F963058F78755990B96
:10032000F3CFDB0160917021709171216031710513
:10033000D4F4A03CB105B8F496E0969FF001979FE5
:10034000F00D1124E05FFE4D8083A183B2834383CF
:10035000548325836F5F7F4F609370217093712169
:1003600090E080E0089581E090E0089520E00C9412
:10037000910142E351E070E060E086E70E94B6013F
:1003800041E152E070E060E087E70E94B6014DEF86
:1003900051E070E060E089E70C94B601FF920F93A2
:1003A0001F93CF93DF93162FF42E052F0E94520335
:1003B000CF2DD02FCE01810F911D8C01C017D107F9
:1003C00041F48AE0DF91CF911F910F91FF900C943F
:1003D0005203E991E295EF70F0E0E050FF4D80812B
:1003E0000E945203FE013197E081EF70F0E0E0508F
:1003F000FF4D80810E945203E1CFCF93DF930F9294
:10040000CDB7DEB7809170218983AE014F5F5F4F1A
:1004100061E082E70E94CE0180E00F90DF91CF91F2
:100420000895CF93DF93CDB7DEB7E097CDBFDEBFA2
:100430002091702130917121B901772740E056E079
:10044000842F90E08617970784F0622F660F620F63
:10045000AE014F5F5F4F82E70E94CE0180E0E096E1
:10046000CDBFDEBFDF91CF910895FC01EE0FFF1FDE
:10047000E80FF91FA1E0B0E0AC0FBD1FEA0FFB1FB2
:10048000589FD001599FB00D1124A05FBE4D8C9193
:10049000808311968C911197818315968C9182831C
:1004A0004F5FCECFAF92BF92CF92DF92EF92FF928B
:1004B0000F931F93CF93DF93CDB7DEB7C154D240D4
:1004C000CDBFDEBF0E944B0340917021509171213E
:1004D00020E131E210E000E00417150794F0401726
:1004E0005107B1F4CF5BDD4FCDBFDEBFDF91CF91C0
:1004F0001F910F91FF90EF90DF90CF90BF90AF9042
:1005000008952A5F3F4FF9013697908198137CC078
:1005100026E0209FC001219F900D11249C01205FA7
:100520003E4D7901D90115968C9180FF20C0CF579F
:10053000DE4F1882C158D1400E944B0389830E942C
:100540004B038A83AE014F575E4FBE016F5F7F4FF3
:1005500081E090E00E944C01892B21F6CF57DE4FBD
:100560008881C158D14090E0F701818392839E0138
:100570002F5F3F4F5901F12CE12C26E0209FC00155
:10058000219F900D1124DC01AF5EBE4D6D01D6019F
:100590008D919C91880F991FE816F906C0F10E9471
:1005A0004B038A3019F08D3009F09CCF26E0209F54
:1005B000C001219F900D11248C01005F1E4DF80198
:1005C000F180AE014F575E4FBE016F5F7F4F8F2DA1
:1005D00092810E944C01892B09F084CFD801139697
:1005E000ED91FC916F2DCE018F579E4F1995CF5BEA
:1005F000DD4F8883C154D240AE014F5B5D4F61E057
:100600008AE70E94CE016ECF0F5F1F4F65CF0E9419
:100610004B038A3009F466CF8D3009F463CFF501BE
:1006200081935F01FFEFEF1AFF0AB1CFE0E4F6E03C
:1006300088E0818384E08283E0EAF8E083E08583D8
:100640008BE08683178284818061848384818860C3
:1006500084830895CF93DF930F920F92CDB7DEB7C7
:10066000FC0169837A8390E080E029813A81281730
:10067000390711F480E008C02091A10827FF09C0C4
:100680008091A008808381E00F900F90DF91CF913F
:1006900008950196EACF8091A10887FFFCCF809151
:1006A000A00808959091A10895FFFCCF8093A00821
:1006B0000895FC0160837183428314861386168635
:1006C00015860895FC0162830895FC0195852685B1
:1006D0009F5F937081E0921301C080E008951F93A3
:1006E000CF93DF93EC01162F0E946503882379F0E6
:1006F0009D85FE01E90FF11D17839F5F93709D8714
:10070000E881F98193819C7F2A81922B9383DF91E9
:10071000CF911F910895FC012385948581E02913D1
:1007200001C080E00895FC018485DF01A80FB11DA0
:1007300013968C9194859F5F937094870895FC0124
:1007400083858F5F83702485A081B1819C918217FE
:1007500049F02385DF01A20FB11D13969C93838777
:1007600081E0089580E00895CF93DF93FC018685B2
:100770009585A081B181981309C013968C91139728
:100780008C7F13968C93DF91CF9108958685EF012E
:10079000C80FD11D8F818C9386858F5F837086876C
:1007A000F2CFFC01CB01248170FF04C021602483BF
:1007B000808308952E7FFBCFFC01848180FF04C0DD
:1007C000808190E091600895808190E0089510927A
:1007D0005200109255008091500088608093500024
:1007E0008091510083FFFCCF88ED84BF83E080932C
:1007F000400088E08093500008950E94E7030E9423
:10080000160381E0809301060E94B90143E151E0A3
:1008100060E170E08BE60E94B60145E151E060E1E5
:1008200070E080E70E94B60140E351E070E060E0D4
:1008300088E70E94B6010E945202FDCFF894FFCFD4
:10084000637C777BF26B6FC53001672BFED7AB768D
:10085000CA82C97DFA5947F0ADD4A2AF9CA472C038
:10086000B7FD9326363FF7CC34A5E5F171D83115A5
:1008700004C723C31896059A071280E2EB27B275C6
:1008800009832C1A1B6E5AA0523BD6B329E32F843E
:1008900053D100ED20FCB15B6ACBBE394A4C58CF36
:1008A000D0EFAAFB434D338545F9027F503C9FA80A
:1008B00051A3408F929D38F5BCB6DA2110FFF3D2D8
:1008C000CD0C13EC5F974417C4A77E3D645D19738C
:1008D00060814FDC222A908846EEB814DE5E0BDB86
:1008E000E0323A0A4906245CC2D3AC629195E479BD
:1008F000E7C8376D8DD54EA96C56F4EA657AAE0817
:10090000BA78252E1CA6B4C6E8DD741F4BBD8B8AB1
:10091000703EB5664803F60E613557B986C11D9E17
:10092000E1F8981169D98E949B1E87E9CE5528DF8E
:100930008CA1890DBFE6426841992D0FB054BB16BA
:100940003031323334353637383941424344454605
:00000001FF
